:100000000C945D000C9485000C9485000C94850084
:100010000C9485000C9485000C9485000C9485004C
:100020000C9485000C9485000C9485000C9485003C
:100030000C9485000C9485000C9485000C9485002C
:100040000C9428020C9485000C9498020C94720273
:100050000C9485000C9485000C9485000C9485000C
:100060000C9485000C9485000000000024002700FB
:100070002A0000000000250028002B0004040404CE
:100080000404040402020202020203030303030342
:10009000010204081020408001020408102001021F
:1000A00004081020000000080002010000030407FB
:1000B0000000000000000000C40311241FBECFEFA9
:1000C000D8E0DEBFCDBF11E0A0E0B1E0E0E4F8E0B1
:1000D00002C005900D92A431B107D9F721E0A4E147
:1000E000B1E001C01D92AB3BB207E1F710E0CDE5F6
:1000F000D0E004C02197FE010E941304CC35D10743
:10010000C9F70E94CA020C941E040C94000090E0EF
:10011000FC01EC55FF4F3491FC01E057FF4F249157
:10012000FC01E458FF4FE491EE2309F43BC0332374
:1001300039F1333091F038F43130A9F0323001F533
:1001400084B58F7D12C0373091F03830A1F0343053
:10015000B9F4809180008F7D03C0809180008F77FB
:10016000809380000DC084B58F7784BD09C08091D5
:10017000B0008F7703C08091B0008F7D8093B00076
:10018000F0E0EE0FFF1FEE58FF4FA591B4918FB72F
:10019000F894EC91611103C020952E2301C02E2B01
:1001A0002C938FBF08953FB7F8948091B701909139
:1001B000B801A091B901B091BA0126B5A89B05C0BC
:1001C0002F3F19F00196A11DB11D3FBFBA2FA92FD6
:1001D000982F8827820F911DA11DB11DBC01CD0153
:1001E00042E0660F771F881F991F4A95D1F708953F
:1001F0008F929F92AF92BF92CF92DF92EF92FF9237
:100200000E94D3004B015C0184E6C82ED12CE12C66
:10021000F12C0E94D300DC01CB0188199909AA09AD
:10022000BB09883E9340A105B10558F021E0C21AF0
:10023000D108E108F10888EE880E83E0981EA11C21
:10024000B11CC114D104E104F10419F7FF90EF903F
:10025000DF90CF90BF90AF909F908F900895CF92F6
:10026000DF92EF92FF920F931F93CF93DF936C0176
:100270007A018B01C0E0D0E0CE15DF0589F0D8010E
:100280006D918D01D601ED91FC910190F081E02DF1
:10029000C6010995892B11F47E0102C02196ECCF8D
:1002A000C701DF91CF911F910F91FF90EF90DF90E9
:1002B000CF900895FC01918D828D981761F0828D09
:1002C000DF01A80FB11D5D968C91928D9F5F9F738A
:1002D000928F90E008958FEF9FEF0895FC01918D2C
:1002E000828D981731F0828DE80FF11D858D90E099
:1002F00008958FEF9FEF0895FC01918D228D892F36
:1003000090E0805C9F4F821B91098F73992708951D
:1003100085E191E00E947C0121E0892B09F420E035
:10032000822F0895FC01848DDF01A80FB11DA35A0F
:10033000BF4F2C91848D90E001968F739927848F05
:10034000A689B7892C93A089B1898C9180648C93FC
:10035000938D848D981306C00288F389E02D8081E7
:100360008F7D80830895EF92FF920F931F93CF9319
:10037000DF93EC0181E0888F9B8D8C8D981305C0F5
:10038000E889F989808185FD24C0F62E0B8D10E067
:100390000F5F1F4F0F731127E02E8C8DE8120CC0DA
:1003A0000FB607FCFACFE889F989808185FFF5CF80
:1003B000CE010E949201F1CF8B8DFE01E80FF11D5D
:1003C000E35AFF4FF0820B8FEA89FB8980818062BC
:1003D00007C0EE89FF896083E889F989808180649C
:1003E000808381E090E0DF91CF911F910F91FF908A
:1003F000EF900895CF93DF93EC01888D8823C9F0A7
:10040000EA89FB89808185FD05C0A889B9898C911D
:1004100086FD0FC00FB607FCF5CF808185FFF2CFB8
:10042000A889B9898C9185FFEDCFCE010E949201F8
:10043000E7CFDF91CF91089580E090E0892B29F0FC
:100440000E94880181110C94000008950E941904F3
:100450001F920F920FB60F9211242F933F938F93F9
:100460009F93AF93BF938091B3019091B401A091FA
:10047000B501B091B6013091B20123E0230F2D37C1
:1004800020F40196A11DB11D05C026E8230F029698
:10049000A11DB11D2093B2018093B3019093B401CB
:1004A000A093B501B093B6018091B7019091B801C6
:1004B000A091B901B091BA010196A11DB11D80931F
:1004C000B7019093B801A093B901B093BA01BF915D
:1004D000AF919F918F913F912F910F900FBE0F90F1
:1004E0001F9018951F920F920FB60F9211242F9301
:1004F0003F934F935F936F937F938F939F93AF93AC
:10050000BF93EF93FF9385E191E00E949201FF91E9
:10051000EF91BF91AF919F918F917F916F915F917B
:100520004F913F912F910F900FBE0F901F901895F4
:100530001F920F920FB60F9211242F938F939F93B8
:10054000EF93FF93E0912501F09126018081E091E6
:100550002B01F0912C0182FD12C0908180912E011F
:100560008F5F8F7320912F01821751F0E0912E0140
:10057000F0E0EB5EFE4F958F80932E0101C08081ED
:10058000FF91EF919F918F912F910F900FBE0F9040
:100590001F901895CF93DF93CDB7DEB7A1970FB615
:1005A000F894DEBF0FBECDBF789484B5826084BD61
:1005B00084B5816084BD85B5826085BD85B5816067
:1005C00085BD80916E00816080936E0010928100E5
:1005D00080918100826080938100809181008160A0
:1005E0008093810080918000816080938000809161
:1005F000B10084608093B1008091B00081608093ED
:10060000B00080917A00846080937A0080917A00B3
:10061000826080937A0080917A00816080937A0072
:1006200080917A00806880937A001092C100E091F6
:100630002501F091260182E08083E0912101F09173
:1006400022011082E0912301F09124018FEC80833C
:1006500010922D01E0912901F0912A0186E080831A
:10066000E0912701F0912801808180618083E091F1
:100670002701F0912801808188608083E091270123
:10068000F0912801808180688083E0912701F091BA
:10069000280180818F7D8083E2E9F0E02491EEE7FC
:1006A000F0E08491882399F090E0880F991FFC0175
:1006B000E859FF4FA591B491FC01EE58FF4F859189
:1006C00094918FB7F894EC91E22BEC938FBF8AE072
:1006D000C82ED12CE12CF12C85E191E00E947C0107
:1006E000181619069CF585E191E00E945A01809345
:1006F0001401282F30E040E050E019A28E010F5D78
:100700001F4FCA01B901A70196010E94F103605D64
:10071000F80162938F01211531054105510589F7D3
:10072000309761F001900020E9F73197AF01401B4D
:10073000510BB80185E191E00E942F0142E050E0A9
:1007400060E171E085E191E00E942F018091140148
:10075000823099F020F48130A1F461E00FC0833041
:1007600019F0843051F00DC00E94F80061E082E081
:100770000E9487000E94F80004C060E082E00E94AE
:1007800087000E941C02A8CFE5E1F1E013821282EB
:1007900088EE93E0A0E0B0E084839583A683B783DE
:1007A00084E091E09183808385EC90E09587848755
:1007B00084EC90E09787868780EC90E0918B808B2B
:1007C00081EC90E0938B828B82EC90E0958B848B14
:1007D00086EC90E0978B868B118E128E138E148E82
:1007E0000895A1E21A2EAA1BBB1BFD010DC0AA1F72
:1007F000BB1FEE1FFF1FA217B307E407F50720F08A
:10080000A21BB30BE40BF50B661F771F881F991F04
:100810001A9469F760957095809590959B01AC014D
:10082000BD01CF010895EE0FFF1F0590F491E02D5B
:10083000099481E090E0F8940C941E04F894FFCFA2
:1008400000000000B3012F017C015A016E01FA0182
:040850000D0A00008D
:00000001FF
